:020000040800F2
:20000000500B0020D5000008DD000008DF00000800000000000000000000000000000000BC
:20002000000000000000000000000000E10000080000000000000000E30000087D14000853
:20004000E7000008E7000008E7000008E7000008E7000008E7000008E7000008E700000828
:20006000E7000008E7000008E7000008E7000008E7000008E7000008E7000008E700000808
:20008000E7000008E7000008E7000008E7000008E7000008E7000008E7000008E7000008E8
:2000A000E7000008E7000008E7000008E7000008E7000008E7000008E7000008C1220008CC
:2000C0000348854600F050F80048004785260008500B00200448804704480047FEE7FEE7A5
:2000E000FEE7FEE7FEE7FEE77F140008C100000830B50B46014600202022012409E00D46C8
:20010000D5409D4205D31D469540491B2546954040191546521E002DF1DC30BD70B50024E3
:200120002546002801DA01244042002901DA01254942FFF7DDFFAC4200D04042002C00D0E7
:20014000494270BD03460B439B0703D009E008C9121F08C0042AFAD203E00B780370401CF9
:20016000491C521EF9D27047064C0125064E05E0E36807CC2B430C3C98471034B442F7D3C0
:20018000FFF7A2FF3C2B00085C2B00087CB50026002000907EE16846808805072D0F002D39
:2001A0007ED16846808810210840002816D1BF480068BF490840BD490860BE4C207800F0F3
:2001C000A7FDA061A169206940182061BA480068002142682046183890475BE1B54C50348B
:2001E000B248006881B20091684600880121C902084000281AD0207800F078FDA061208BB3
:2002000082B2A1882046583800F008FEA74800684004400CA64980310840A4490860A64883
:200220000068816820466838884733E1684600880121C90308400028ACD09C4800684004E4
:20024000400C9B498031084098490860207800F04DFDA061A069002809D0238B9AB2A1882C
:20026000206900F0DBFDA16920694018206192480068002102688F48183890478B484030B3
:20028000006980B2801D8D4A8118E2683E2A11D9E268D202100C227BD206D20E002A00E081
:2002A00026E001D1421E90B282020123DB031A430A800CE0E268D203100C227BD207D20FD9
:2002C000002A01D0421C90B28206120C0A80774909687B4A114008460121090348404900BF
:2002E00048408900014380221143704A1160D1E0A8006E494018006881B2009168460088BE
:200300000121C903084000285FD0A8006749401800684004400C664980310840A900634AAA
:200320008918086028206843624950314418A07A00280BD1207800F0D9FC0646002E28D04C
:20034000A1883246206900F069FD22E0207800F09FFC01218903084000280BD0207800F077
:20036000A1FC0646002E10D0E1883246206900F055FD0AE0207800F0A7FC0646002E04D077
:2003800021893246206900F049FD2078002100F0F5FBA0698019A0612069801920616069D4
:2003A000002802D0E068B04207D9217842480068026840481838904707E0A08A83B22178A6
:2003C0003C481838226900F0E7F9684600888021084000285ED02820684336494418A80003
:2003E00032494018006832490840A9002F4A89180860A07A00280DD1207800F089FCA061A6
:20040000A06900282CD0238B9AB2A188206902F005F925E0207800F03BFC4021084000287E
:200420000DD0207800F03EFCA061A069002813D0238B9AB2E188206902F0F0F80CE02078BE
:2004400000F042FCA061A069002805D0238B9AB22189206902F0E2F82078012100F08EFB3B
:20046000207800F055FCA061A1692069401820616069002807D121780F48006842680D4816
:200480001838904706E021780A4818386369226900F02AFA05484030406880B2019001215F
:2004A000C9030840002800D075E67CBD005C00400F8F0000FC010020800100200060004004
:2004C0008FBF000081000A4A891809681214114000290BD08100064A89180968054A1140E9
:2004E000054A11438200024BD218116070470000005C00408F8F000080C0000081000A4AA9
:20050000891809684022114000290BD08100064A89180968054A1140054A11438200024B1D
:20052000D218116070470000005C00408F8F0000C0800000044989690122D2031143024AD8
:200540009161012181707047405C004070B506460D4680202840802807D16806400E2821B2
:20056000484331461831441806E06806400E28214843314668314418A07A002812D16078F5
:20058000002807D02078FFF7B9FF2078002100F02BFF2DE02078FFF795FF2078002100F06B
:2005A000DFFE25E06078002811D12078FFF78AFF2078FFF7A3FF207801F034F820780021C2
:2005C00000F0CEFE2078002100F00EFF10E02078FFF778FF2078FFF791FF207801F00EF807
:2005E0002078002100F000FF2078002100F0B8FE002070BD70B506460D4680202840802833
:2006000007D16806400E2821484331461831441804E0282068433146683144186078002813
:2006200009D02078FFF76AFF2078302100F0DCFE0020A07009E02078FFF744FF2078032191
:20064000090300F08DFE0020A070002070BDFFB581B006460D46174680202840802809D12B
:200660006806400E282148433146183144180120607008E06806400E282148433146683155
:20068000441800206070E7600498E0706806400E20702078002802D16062E0612062002057
:2006A00020616061A061A070E078002806D0012815D0022808D0032817D10AE020780121CA
:2006C000490200F0B3FE10E02078002100F0AEFE0BE020780321490200F0A8FE05E02078E4
:2006E0000121890200F0A2FE00BF00BFA07A002820D1607800280BD0A188207800F056FE2C
:200700002078FFF7FBFE2078202100F06DFE40E0A188207800F0EAFDA28991B2207800F070
:20072000F7FD2078FFF7CEFE20780321090300F017FE2EE0207800F0C3FD2289E18820789C
:2007400000F03CFD6078002812D12078FFF7BAFE2078FFF7D3FE207800F064FF2078032141
:20076000090300F0FDFD2078002100F03DFE10E02078FFF7A7FE2078FFF7C0FE207800F0A8
:200780003DFF2078002100F02FFE2078002100F0E7FD002005B0F0BDFFB581B005460E46B4
:2007A0001746002000907006400E282148432946683144182761049860610020A061E168E1
:2007C0006069884206D9E068009060690099401A606103E06069009000206061A07A0028F3
:2007E00005D1009A91B2207800F092FD05E0009B9AB26178207800F0FDFC20780321090341
:2008000000F0AEFD002005B0F0BD000030B502460020117100BF10E003069B0D0B4C1B1901
:200820001B680B4C23400B4C2343C4B223430406A40D064D64192360401C0228ECD38023EC
:200840000B43024C4034E36030BD0000005C00408F8F00008080000070B506460D4680203A
:200860002840802807D16806400E2821484331461831441804E028206843314668314418A1
:200880002078002819D121788900154A89180968144A1140084601210903484010214840AF
:2008A000C902014380221143227892000C4BD21811600120A070002070BD6078002806D001
:2008C0000120A0702078102100F08EFD06E00120A07020780121090300F042FD0020EBE7A5
:2008E000005C0040BFBF0000FFB583B006460D461746002002906806400E28214843314642
:20090000183144186806400E20702761069860610020A061E1686069884206D9E068029049
:2009200060690299401A606103E06069029000206061A07A00280BD1029B9AB2A188206960
:2009400001F06CFE029A91B2207800F03FFD1EE000200190029B9AB26178207800F04AFC5A
:20096000207800F095F940210840002802D02089019001E0E088019002998AB220690199B0
:2009800001F04CFE6178207800F0F8F800BF2078302100F029FD002007B0F0BD10B504467A
:2009A0000120A07000202071A0600120E06000F0FFFB002000F0FCFB002000F049FD00208D
:2009C00000F0ECFBBF20000203490860098888B200F0EEFB10BD00008C01002070B505461D
:2009E0000C4680202040802807D16006400E282670432E461836811906E06006400E28262C
:200A000070432E4668368119002A03D1002088728B8004E001208872CB80180C088100203D
:200A200070BD000070B50446042500F089FB0B20000400F08FF80546042D17D10D480069B5
:200A4000022108430B49086108464461006940210843084908610B20000400F07BF80546CC
:200A600004480069022188430249086100F06CFB284670BD0020024004200D49C968C90750
:200A8000C90F002901D0012010E00949C96810221140002901D0022008E00549C9680422C4
:200AA0001140002901D0032000E004207047000000200240F8B505460E461446601C44083D
:200AC000374609E03988284600F00CF8042801D00320F8BDBF1CAD1C2046641E0028F1D142
:200AE0000420F6E770B504460D46042600F028FB0B20000400F02EF80646042E11D10B48FE
:200B00000069012108430949086125800B20000400F020F806460548006940084000034992
:200B2000086100F011FB304670BD0000002002400548006980210840002804D0034802491A
:200B400048600348486070470020024023016745AB89EFCD70B504460425FFF78DFF0546BC
:200B600003E0FFF789FF0546641E012D01D1002CF7D1002C00D10525284670BD10B50029A3
:200B80000CD182000D4BD21812680D4B1A400D4B1A438300094C1B191A600DE001290BD15A
:200BA0008200064BD2181268054B1A40064B1A438300024C1B191A6010BD0000005C0040BE
:200BC0008F8F0000C080000080C00000F8B504460D4616466D000921C906601A2C21FFF7AE
:200BE0009DFA07461721FFF799FA01460120400488402649496908432449486120680321AE
:200C0000A94088432060092E0AD120680121A94008432060E0680121A9400843E0602FE043
:200C20000A2E05D120680321A9400843206027E0082E25D020680221A94008432060F020A5
:200C40002840002810D0616A2846103842000F20904081436162606A294610394A00314698
:200C60009140084360620BE0206A6A000F21914088432062206A6A00314691400843206260
:200C8000A0680321A9400843A060F8BD0010024001468800024A8018006880B270470000E9
:200CA000005C004001460648006980B2CA008018801C044A801800888005800D7047000033
:200CC000405C00400060004001460648006980B2CA008018801D044A801800888005800DE9
:200CE00070470000405C00400060004001460648006980B2CA008018801D044A8018008824
:200D00008005800D70470000405C00400060004001460648006980B2CA008018801C044A12
:200D2000801800888005800D70470000405C00400060004070B5094C094D0A4EA419002C3D
:200D40000AD008220849204600F010F8042206491031284600F00AF870BD0000461718FA2E
:200D6000599784138545D5AC2E01002030B50B46002100BF12E0040F0A2C04D2040F3034B4
:200D80004D005C5503E0040F37344D005C55000100254C00641C1D554C1CE1B29142EADBFF
:200DA00030BD000010B5002819DA1A4A03071B0F083B9B089B00D2588307DC0EFF23A340AA
:200DC0009A438B071B0E8407E40EA3401A43114B0407240F083CA408A4001A5118E00E4AD5
:200DE00003231B02D21883089B00D2588307DC0EFF23A3409A438B071B0E8407E40EA34005
:200E00001A43054B032424021B198408A4001A5110BD00001CED00E000E100E070B5561CFB
:200E20007510064E8C192B4605E026880680A41C401C401C5B1E002BF7D170BD00600040F9
:200E400010B522480078002818D12148008A012189030840002810D01E480068401C1D4959
:200E60000860084600687D21C900884205D900201849086001201549087010BD1448008AB2
:200E800001218903084000281AD112480068401C10490860084600680F49884213D9002086
:200EA0000C49086009220F210948FFF78FFE0848808A0121C90388430549888200BFFEE737
:200EC00000200449086000BFD7E700000001002000040048040100203075000030B5054659
:200EE000072D01D03148057030480078030001F0ABFB0805131C222E3B5556542C480068D3
:200F0000002805D100F058F806202849087002E005202649087046E000F04EF804202349AA
:200F200008700120224908603DE002201F4948700320087037E01D484078401E1B4948709D
:200F400008464078002801D1042008702BE01948006884B210200443164804600520134931
:200F600008700A2048701EE010484078401E0F4948700846407800280ED10E48006884B29A
:200F800010212046884304460A48046006200749087000200649086005E000BF00BF0620A1
:200FA0000249087000BF00BF30BD0000480100204C010020405C00400649096888B2042231
:200FC00001469143084603490860BF210902014A11607047405C004030B50446E3430AE07B
:200FE000087858400006800D054D28581D0A68400346491C521E002AF2D1D84330BD000092
:20100000D0260008002102E000BF4A1C91B28142FADB704710B5074B9A69302343431946C6
:2010200000BF044B9B69D31A024C646923408B42F7D310BD00E000E000B5FFB0C4B03449BA
:2010400003C9C291C1903349C198884217D13249C298884213D1FFF76BFD032212022F4907
:2010600001A8FFF76FF82D48FFF7DCFC0322120201A92A48FFF71EFD7FB044B000BD284871
:2010800040690121890508432549486125480068C0218843234908607D20C000FFF7B2FF3C
:2010A0002048008A40210840002819D17D20C000FFF7A8FF00230CE01A48008A40210840E5
:2010C000002800D007E0581CC3B27D20C000FFF799FF142BF0DB00BF142B00DBCCE700BF08
:2010E000114800681149884210D10F484068104988420BD10F4800680F49884206D10D481F
:2011000040680E49884201D100F022F800BFB3E700F30108D13A4195530D5EC300F001087A
:201120000010024000140048004A0008B032691A7964C75100390008C10A1298C28FD6A0D8
:20114000012080F310887047002080F31088704710B5FF2201320D49C803FEF7F3FF0C4855
:201160000068032108430A490860084840680949086008460068084908600449086880F38C
:20118000088800BF04480068804710BD00400008000001400C01002008010020024901404D
:2011A000024A116170470000F8FF0000405C00400149086070470000405C004030B54B1062
:2011C0005B000A4C2469A4B2C5006419084D6419238053105C00054B1B699BB2C5005B19AB
:2011E0001B1D034D5B191C8030BD0000405C00400060004070B50346002921D12E48006986
:2012000080B2DD004019801C2C4D44193E2A0CDD5011D506ED0E002D01D1451EA8B2850229
:201220000126F6033543258009E05010D507ED0F002D01D0451CA8B285062D0C25800AE044
:20124000012908D11C48006980B2DC000019801C1A4C00190280002921D11748006980B2E5
:20126000DD004019801D154D44193E2A0CDD5011D506ED0E002D01D1451EA8B285020126EA
:20128000F6033543258009E05010D507ED0F002D01D0451CA8B285062D0C25800AE00129E1
:2012A00008D10548006980B2DC000019801D034C0019028070BD0000405C00400060004048
:2012C0008100074A8918096892151143054A1140054A11438200024BD2181160704700000B
:2012E000005C00408F8F00008080000010B54A105300054A126992B2C4001219121D034C47
:201300001219138010BD0000405C00400060004030B502461048006980B2D4000019801D1C
:201320000E4C03193E290CDD4811CC06E40E002C01D1441EA0B284020125ED032C431C8071
:2013400009E04810CC07E40F002C01D0441CA0B28406240C1C8030BD405C00400060004018
:2013600030B583000F4C1B191B680F4C23401A4601231B030B40002B02D001231B035A406F
:2013800001235B030B40002B02D001235B035A400123DB031343802423438400014D6419B6
:2013A000236030BD005C00408FBF000010B54A105200044B1B699BB2C4001B19024C1B19C8
:2013C0001A8010BD405C004000600040044A126992B2C300D218921C024BD2181180704743
:2013E000405C00400060004030B583000D4C1B191B680D4C23401A4610230B40002B01D063
:2014000010235A4020230B40002B01D020235A400123DB031343802423438400014D6419E7
:20142000236030BD005C0040BF8F000010B58200054BD2181268054B1A400A438300024C8F
:201440001B191A6010BD0000005C00408F8900000149486070470000405C00400649096818
:2014600088B20821084304490860096888B204210843014908607047405C0040704770473B
:201480001CB5002001900090574800680121084355490860084640685449084052494860A2
:2014A00008460068524908404F490860084600680121890488434C490860084640683F2110
:2014C00009048843484948600846C06A00090001C8620846006BFF21543188434249086330
:2014E0000846406B40084000486300208860084600680121090408433B49086000BF3A485B
:20150000006801214904084000900198401C01900098002804D10521090301988842EED1AD
:2015200031480068012149040840002802D00120009001E0002000900098012839D11120DB
:201540002C4908602848406827494860084640684860084640687F21C903884322494860A0
:20156000084640681121090408431F494860084600680121090608431B49086000BF1A48BC
:2015800000680121490608400028F8D01648406880088000144948600846406802210843C3
:2015A0001149486000BF104840680C2108400828F9D111480069042108430F4908614817A9
:2015C000486108460069012108430B490861002404E0FF20F530FFF71DFD641CFF202D3029
:2015E0008442F6D31CBD0000001002400CB8FFF8FFFFF6FE0020024000E000E08100064A91
:2016000089180968054A1140054A11438200024BD218116070470000005C00408F8F0000DA
:2016200080C000008100064A89180968054A1140054A11438200024BD21811607047000063
:20164000005C00408F8F0000C080000070B504460D46B82000592946426820469047002027
:2016600070BD70B504460D46A078022802D0032810D100E000BF688801280AD10020A060A8
:20168000B82000592946826820469047204600F05BF804E02946204600F01DF800BF00BF9E
:2016A00070BDF8B506460C46154600272B46224600213046FFF770F83846F8BDF8B5064636
:2016C0000C46154600272B46224600213046FFF70BF93846F8BD70B504460D460021204650
:2016E000FFF7BAF870BDF8B504460E46154600278820055184200551032060702B46324674
:2017000000212046FFF748F83846F8BD70B5044600250520607000231A4619462046FFF712
:201720003BF8284670BDF8B504460E4615460027A5636563022060702B46324600212046DC
:20174000FFF7D2F83846F8BD70B5044600250420607000231A4619462046FFF7C5F82846A5
:2017600070BD000070B505460E46002E4AD12C4618346878022835D1E168E06988420AD922
:20178000E168E069401AE061A08B82B228462169FFF794FF44E0E168206AFEF7A9FC002982
:2017A0000FD1E168206A88420BD3616A206A884207D2002211462846FFF780FF0020606298
:2017C0002EE0B8204059C068002807D0A878032804D1B8204059C168284688472846FFF708
:2017E00095FF1DE0687804281AD10E480068002816D00C4801782846FFF708F800200949F2
:2018000008600DE0B82040594069002808D0A878032805D1B8204059314642692846904760
:20182000002070BD8401002070B505460E46002E2AD12C4668346878032833D1E168E0691A
:20184000884210D9E168E069401AE061E368E069984201D2E06900E0E06882B228462169CA
:20186000FFF71FFF1EE0B82040590069002807D0A878032804D1B820405901692846884745
:201880002846FFF761FF0DE0B82040598069002808D0A878032805D1B82040593146826949
:2018A00028469047002070BD01460020704738B504460D4600200090E888012804D0294662
:2018C0002046FFF708FF17E0A078022802D003280CD105E0012269462046FFF724FF0AE072
:2018E000012221462046FFF71EFF04E029462046FFF7F1FE00BF00BF38BDF8B504460E4689
:2019000070880012030000F09FFE086505121C65655B6065207BC02109590A6869469047CD
:201920000546F088402801D10820009057E0207BB82109590A6A694690470546C4210D515D
:201940004DE0B078030000F07FFE06040C141C242C34207BC02109594A6869469047054697
:201960002CE0207BC02109598A6869469047054624E0207BC0210959CA68694690470546D5
:201980001CE0207BC02109590A6969469047054614E0207BC02109594A69694690470546D3
:2019A0000CE0207BC02109598A6969469047054604E031462046FFF78EFEF8BD00BF0EE0F4
:2019C00031462046FFF787FEF7E731462046FFF782FEF2E731462046FFF77DFEEDE700BFC4
:2019E00068460088002812D0F08800280FD0F08869460988884202DD6846008800E0F08839
:201A0000009069460A8829462046FFF78CFE00BFD3E70146002002E0421CD0B2491C0A7817
:201A2000002AF9D1704738B504460D4600200090A078022802D0032810D100E000BF0120E1
:201A40000090A068002803D00221009808430090022269462046FFF766FE04E02946204611
:201A6000FFF739FE00BF00BF38BDF8B504460D4617460026002C1ED02046FFF7CAFF40007A
:201A8000801C38803A783046711CCEB22A5403223046711CCEB22A540AE022783046711C92
:201AA000CEB22A54641C00223046711CCEB22A5420780028F1D1F8BD0246012902D10120E8
:201AC000014B187000207047D201002070B504460D4623231B01064A81212046FEF75CFE9D
:201AE000FF22193202490348FEF72CFB002070BDEC0200201C05002070B504460D468121C8
:201B00002046FEF723FD01212046FEF71FFD002070BD0000014604480078012802D100203D
:201B2000014A107000207047D1010020024629200880014870470000F02A000870B5044667
:201B40000D46FF232133002281212046FEF746FF11235B01002201212046FEF73FFF0323C5
:201B6000402281212046FEF772FD0323402201212046FEF76CFD23231B01034A01212046F2
:201B8000FEF70AFE002070BDEC02002070B506460C461546B078032805D12B46224681212B
:201BA0003046FEF7A1FE002070BD0000F8B505460C46002600270020009020786021084026
:201BC000002836D0202868D16078801E030000F03BFD0A150A28282828281B100628A07853
:201BE0002F49086023E001222D492846FFF79BFD1DE0608800122B49086018E0012229490D
:201C00002846FFF790FD12E0012027490870A07826490870A679324625492846FFF763FD10
:201C200005E021462846FFF756FD0220F8BD00BF33E06078062804D00A2823D00B282BD1CA
:201C400026E060880012222809D1E088192801DD192000E0E0880746164800900CE0608849
:201C60000012212808D114480090E088092801DD092000E0E08807463A4628460099FFF792
:201C800052FD09E001220D492846FFF74CFD03E0A0780A49086000BF00BF00BF0020C5E727
:201CA000D8010020DC010020D1010020D0010020EC020020192B0008022B0008D4010020C7
:201CC000F8B504460D4616461F46204600F0DAFA2046FFF7E9FDB8200651BC200751C0204A
:201CE0000551FFF727F82046FEF758FEBC210959086880472046FEF71DFC7D20C000FFF78B
:201D000089F9204600F0AEFAF8BD027C0A70427C4A70837CC27C12029A184A80037D427D12
:201D200012029A188A80837DC27D12029A18CA80CB88C36301224270704710B5044640230D
:201D4000002211462046FEF749FE8023002219462046FEF743FE0023402219462046FEF769
:201D600076FC0023402280212046FEF770FC0120A070207BBC22125951688847002010BD7A
:201D800010B50446BC21095908698047E078A070002010BD10B50446B8200059C0690028D7
:201DA00004D0B8200059C16920468847002010BD70B504460D46A88800281BD1E888002834
:201DC00018D1A8784606760EA078032804D129462046FFF780FC11E0267109480660204626
:201DE000FFF7B2FC002E02D00220A07006E00120A07003E029462046FFF76DFC70BD0000B2
:201E00008401002070B504460D46B82000592946026820469047BC210959886880470020FE
:201E200070BD000070B504460D46A8782C49087008460078012804DD29462046FFF74BFCC4
:201E40004CE0A078022802D0032841D115E02448007800280DD02248007820700320A07082
:201E60001F4801782046FFF7CDFF2046FFF76CFC02E02046FFF768FC2FE0194800780028E4
:201E80000DD10220A070164800782070144801782046FFF7DBFB2046FFF756FC17E0207888
:201EA0000F49097888420FD021782046FFF7CEFB0B48007820700A4801782046FFF7A2FFBF
:201EC0002046FFF741FC02E02046FFF73DFC04E029462046FFF7FFFB00BF00BF70BD00009E
:201EE0008801002070B504460D466888012809D1A060B82000592946826820469047204657
:201F0000FFF722FC70BD1CB5044669462046FFF7FCFE68460078C006C00E002804D0012881
:201F200007D002280FD109E06946204600F017F812E06946204600F0F5F80DE069462046DD
:201F400000F046F808E0684600788022104001462046FEF781FC00BF00BF00201CBD70B598
:201F600005460C4600266078030000F06DFB0A1A24291F290B062915102921462846FFF75F
:201F8000BCFC22E021462846FFF712FF1DE021462846FFF747FF18E021462846FFF787FC57
:201FA00013E021462846FFF73EFD0EE021462846FFF798FF09E021462846FFF752FB04E0F3
:201FC00021462846FFF787FB00BF00BF304670BDF8B505460E4600200090002734797078DB
:201FE000002859D001282CD0032875D1A878022802D003281ED108E0002C05D0802C03D05C
:2020000021462846FEF728FC19E07088002807D1002C05D0802C03D021462846FEF71CFC7F
:20202000B820405931468268284690472846FFF78BFB04E031462846FFF74DFB00BF00BF1A
:202040006DE0A878022802D003281ED108E0002C05D0802C03D021462846FEF7FDFB19E0DA
:202060007088002807D1002C05D0802C03D021462846FEF7BFFAB820405931468268284625
:2020800090472846FFF760FB04E031462846FFF722FB00BF00BF42E0A878022802D00328E7
:2020A00035D108E0002C05D0802C03D021462846FEF7D2FB30E080202040802810D160061C
:2020C000400E282148432946183140188078002803D00120009014E020E00020009010E096
:2020E0008020204000280CD1282060432946683140188078002802D00120009001E00020EC
:202100000090022269462846FFF70DFB04E031462846FFF7E0FA00BF00BF00E000BF00BF7B
:202120003846F8BD70B504460D460026A078032817D1287901280FDCB8200059294682681A
:20214000204690470646E888002809D1002E07D12046FFF7F9FA03E029462046FFF7BBFACC
:2021600004E029462046FFF7B6FA00BF00BF304670BD10B50446A078E0700420A070BC2157
:202180000959C8688047002010BD000070B505460C462246024903A0FFF767FC004870BD13
:2021A000AC02002048494420436F6E6669670000704700000246122008800148704700004D
:2021C000D02A0008704770477047704770B505460C462246024903A0FFF747FC004870BD5B
:2021E000AC02002048494420496E7465726661636500000002460420088001487047000097
:20220000EC2A000870B505460C462246024903A0FFF72BFC004870BDAC020020466C7953AA
:202220006B79000070B505460C462246024903A0FFF71BFC004870BDAC02002046532D6923
:202240003653206669726D7761726520757064617465000002461A200880014870470000CB
:202260002C01002010B5044601211F20FEF79AFD1F2001218140024A116000BF10BD0000AA
:2022800000E100E00D4949693F22520411430B4A51611146C9690122D2051143074AD16109
:2022A0001146096B80229143044A11631146096B80221143014A1163704700000010024092
:2022C00010B500F001F810BD08B5002100913F48406881B20091684600880121C9030840B5
:2022E0003B4909680840002801D0FDF74FFF684600880121890208403549096808400028DC
:202300000BD03448314948603348006801693348884700213148FEF779FA68460088012153
:20232000490308402A4909680840002802D02C48264948606846008801210903084024493F
:202340000968084000280AD0264820494860224800688169214888470020FEF7BFFD6846D0
:2023600000880121C9020840194909680840002809D01D4815494860174800684169174849
:202380008847FFF76BF8684600880121490208400F4909680840002807D014480B494860C2
:2023A0000D480068C1680D48884768460088FF2101310840064909680840002805D00C48EA
:2023C000024948600720FEF789FD08BD405C00408C010020FFFB000080010020E40100207A
:2023E000FFDF0000FFEF0000FFF70000FFFD0000FFFE0000F1B5FFB0FFB08AB0FEF7A0FE51
:20240000FF2219327749C2A8FDF79CFE7649C2980968884205D1FEF797FE7FB07FB00BB0CB
:20242000F0BD7149C2980860FEF78EFEC398030000F00AF90EC1080E1F20293A57868C941D
:202440009EA2A8C11C2269496948FDF77BFEB3E0FF210131C598884200D9DEE70123DB0616
:20246000C498C0185B13C1186148C59AFDF76AFEA2E000BF0122D206C4998918521388183E
:20248000FEF7D0FA98E0FF210131C598884200D9C3E70123DB06C499C9185B13C818C8A907
:2024A000C59AFEF707FB87E001218903C498401849034618C59DC69F0DE02C46012080028A
:2024C000844200D90446224631463846FEF784FD074636192D1B002DEFD14548183807612A
:2024E0006AE0FEF72DFE03221202424902A8FDF729FE414900914149019108226946404851
:20250000FEF7D8FA0322120202A93A48FEF7D2FA00BF00BF00BF00BF00BFBFF34F8F00BFC3
:2025200000BF00BF37483849C86000BF00BF00BFBFF34F8F00BF00BF00BF00BF00BFFDE789
:202540002622C8A93148FEF7B5FA35E0284818382F4A11685268C26181612DE02B49C59A3F
:20256000C698FEF739FD044621481838046123E02648FEF757FA1FE0262224491C48FDF7A7
:20258000E1FD19E0FF220132204982A8FDF7DAFD1E48FEF747FA1F4806C881928091082293
:2025A00080A91D48FEF786FAFF22013282A91748FEF780FA00E000BF00BF0A4800680A4960
:2025C0000860084800680A4918390860054840684860FF221932FFA8406AFFF7D7FA00BFEF
:2025E0001BE700001C050020E0010020B40100204C06002000F0010812F50F35BAAE95848B
:2026000000F401080400FA0500ED00E00038000800450008342B000800390008F8B5571C98
:202620007F100097074FCD19009B08E00478401C07783E0226432E80AD1C401C5B1E002B3E
:20264000F4D1F8BD0060004030B47446641E2578641CAB4204D3635D5B00E31830BC1847FE
:202660001D46F8E702E008C8121F08C1002AFAD170477047002001E001C1121F002AFBD11F
:2026800070470000FEF7D8FCFEF7FAFE0B4B0C4A0C490D48FFF714FBFEF74AFA08220E21E0
:2026A0000A48FEF793FA07E00748FFF7A3FE3220FEF7B0FCFEF7C4FBF6E700005001002084
:2026C0009001002010010020E40100200004004800000000963007772C610EEEBA5109994D
:2026E00019C46D078FF46A7035A563E9A395649E3288DB0EA4B8DC791EE9D5E088D9D297F2
:202700002B4CB609BD7CB17E072DB8E7911DBF906410B71DF220B06A4871B9F3DE41BE8411
:202720007DD4DA1AEBE4DD6D51B5D4F4C785D38356986C13C0A86B647AF962FDECC9658AB1
:202740004F5C0114D96C0663633D0FFAF50D088DC8206E3B5E10694CE44160D5727167A2D1
:20276000D1E4033C47D4044BFD850DD26BB50AA5FAA8B5356C98B242D6C9BBDB40F9BCAC71
:20278000E36CD832755CDF45CF0DD6DC593DD1ABAC30D9263A00DE518051D7C81661D0BF91
:2027A000B5F4B42123C4B3569995BACF0FA5BDB89EB802280888055FB2D90CC624E90BB131
:2027C000877C6F2F114C6858AB1D61C13D2D66B69041DC760671DB01BC20D2982A10D5EF11
:2027E0008985B1711FB5B606A5E4BF9F33D4B8E8A2C9077834F9000F8EA8099618980EE1F1
:20280000BB0D6A7F2D3D6D08976C6491015C63E6F4516B6B62616C1CD83065854E0062F290
:20282000ED95066C7BA5011BC1F4088257C40FF5C6D9B06550E9B712EAB8BE8B7C88B9FCB0
:20284000DF1DDD62492DDA15F37CD38C654CD4FB5861B24DCE51B53A7400BCA3E230BBD450
:2028600041A5DF4AD795D83D6DC4D1A4FBF4D6D36AE96943FCD96E34468867ADD0B860DA70
:20288000732D0444E51D03335F4C0AAAC97C0DDD3C710550AA41022710100BBE86200CC910
:2028A00025B56857B3856F2009D466B99FE461CE0EF9DE5E98C9D9292298D0B0B4A8D7C730
:2028C000173DB359810DB42E3B5CBDB7AD6CBAC02083B8EDB6B3BF9A0CE2B6039AD2B17448
:2028E0003947D5EAAF77D29D1526DB048316DC73120B63E3843B64943E6A6D0DA85A6A7AE0
:202900000BCF0EE49DFF099327AE000AB19E077D44930FF0D2A3088768F2011EFEC206697F
:202920005D5762F7CB67658071366C19E7066B6E761BD4FEE02BD3895A7ADA10CC4ADD679F
:202940006FDFB9F9F9EFBE8E43BEB717D58EB060E8A3D6D67E93D1A1C4C2D83852F2DF4F3F
:20296000F167BBD16757BCA6DD06B53F4B36B248DA2B0DD84C1B0AAFF64A0336607A04415F
:20298000C3EF60DF55DF67A8EF8E6E3179BE69468CB361CB1A8366BCA0D26F2536E26852FF
:2029A00095770CCC03470BBBB91602222F260555BE3BBAC5280BBDB2925AB42B046AB35C1F
:2029C000A7FFD7C231CFD0B58B9ED92C1DAEDE5BB0C2649B26F263EC9CA36A750A936D02FF
:2029E000A906099C3F360EEB8567077213570005824ABF95147AB8E2AE2BB17B381BB60CDF
:202A00009B8ED2920DBED5E5B7EFDC7C21DFDB0BD4D2D38642E2D4F1F8B3DD686E83DA1FFE
:202A2000CD16BE815B26B9F6E177B06F7747B718E65A0888706A0FFFCA3B06665C0B01119E
:202A4000FF9E658F69AE62F8D3FF6B6145CF6C1678E20AA0EED20DD75483044EC2B30339BE
:202A6000612667A7F71660D04D476949DB776E3E4A6AD1AEDC5AD6D9660BDF40F03BD8375E
:202A800053AEBCA9C59EBBDE7FCFB247E9FFB5301CF2BDBD8AC2BACA3093B353A6A3B4247E
:202AA0000536D0BA9306D7CD2957DE54BF67D9232E7A66B3B84A61C4021B685D942B6F2A1E
:202AC00037BE0BB4A18E0CC31BDF055A8DEF022D12010002000000404E281A8000010102D7
:202AE00003010A060002000000400100040309040902290001010080FA09040000020300A9
:202B0000000009211101000122190007058103400004070501034000010600FF0901A10167
:202B20001581257F75089618010901810209019102C00000C10A1298C28FD6A008370008C2
:202B400000010020E400000064260008EC370008E40100206C090000742600080000000097
:202B6000000000000000000000000000000000000000000000000000000000000000000055
:202B8000000000000000000000000000000000000000000000000000000000000000000035
:202BA000000000000000000000000000000000000000000000000000000000000000000015
:202BC0000000000000000000000000000000000000000000000000000000000000000000F5
:20370000000000000000030000000000000000000000000000000000B5210008F5210008AA
:203720000522000825220008552200088D210008CD2100081A0300000000000000000000C3
:20374000000000000000000000000000000000000000000000000000CB210008C521000887
:20376000B1210008C9210008C72100082918000865170008071F0008951D00083B1D000878
:2037800073210008811D0008640100200000000000000000000000003D1B0008F91A0008E7
:2037A000AD1B000800000000151B0008B91A0008CD1A0008000000002D1B000800000000E7
:2037C00000000300000080000000400000010000000800000000010000000000000000001C
:2037E000000000000000000000000000FFFFFFFFFFFFFFFFFFFFFFFFFFFFFFFFFFFFFFFFDD
:203800001A160000143B323546251A212A2D1C1F37424839143B323546251A212A2D1C1FA2
:20382000374248390100FFFFFFFFFFFFFFFFFFFFFFFFFFFFFFFFFFFFFFFFFFFFFFFFFFFFA7
:20384000FFFFFFFFFFFFFFFFFFFFFFFFFFFFFFFFFFFFFFFFFFFFFFFFFFFFFFFFFFFFFFFF88
:20386000FFFFFFFFFFFFFFFFFFFFFFFFFFFFFFFFFFFFFFFFFFFFFFFFFFFFFFFFFFFFFFFF68
:20388000FFFFFFFFFFFFFFFFFFFFFFFFFFFFFFFFFFFFFFFFFFFFFFFFFFFFFFFFFFFFFFFF48
:2038A000FFFFFFFFFFFFFFFFFFFFFFFFFFFFFFFFFFFFFFFFFFFFFFFFFFFFFFFFFFFFFFFF28
:2038C000FFFFFFFFFFFFFFFFFFFFFFFFFFFFFFFFFFFFFFFFFFFFFFFFFFFFFFFFFFFFFFFF08
:2038E000FFFFFFFFFFFFFFFFFFFFFFFFFFFFFFFFFFFFFFFFFFFFFFFFFFFFFFFFFFFFFFFFE8
:20390000C10A1298C28FD6A0FFFFFFFFFFFFFFFFFFFFFFFFFFFFFFFFFFFFFFFFFFFFFFFF83
:20392000FFFFFFFFFFFFFFFFFFFFFFFFFFFFFFFFFFFFFFFFFFFFFFFFFFFFFFFFFFFFFFFFA7
:20394000FFFFFFFFFFFFFFFFFFFFFFFFFFFFFFFFFFFFFFFFFFFFFFFFFFFFFFFFFFFFFFFF87
:20396000FFFFFFFFFFFFFFFFFFFFFFFFFFFFFFFFFFFFFFFFFFFFFFFFFFFFFFFFFFFFFFFF67
:20398000FFFFFFFFFFFFFFFFFFFFFFFFFFFFFFFFFFFFFFFFFFFFFFFFFFFFFFFFFFFFFFFF47
:20400000A8290020D5400008FB400008FD400008000000000000000000000000000000000A
:20402000000000000000000000000000FF40000800000000000000000141000803410008A3
:20404000054100080541000805410008054100080541000805410008016300083163000884
:204060000541000805410008054100080541000805410008054100080541000805410008D0
:20408000B5970008054100080541000845950008719500080541000889960008054100087D
:2040A0000541000805410008054100080541000805410008054100080541000861AB0008CA
:2040C0000348854600F0D4FC00480047CD5C0108A82900200C4880F308880C480168090E2D
:2040E0000B4A914205D10B480B4901600B480C4901600C4880470C480047FEE7FEE7FEE74C
:20410000FEE7FEE7FEE70000A8290020040000001F00000018100240010000000000014030
:2041200000000000A98C0008C140000830B50B46014600202022012409E00D46D5409D4205
:2041400005D31D469540491B2546954040191546521E002DF1DC30BD70B5002425460028C4
:2041600001DA01244042002901DA01254942FFF7DDFFAC4200D04042002C00D0494270BD42
:2041800010B5431A934209D28318881803E0401E01785B1E1970521EF9D210BD03460B43B7
:2041A0009B0703D009E008C9121F08C0042AFAD203E00B780370401C491C521EF9D210BD3B
:2041C000D2B201E00270401C491EFBD270470022F6E710B513460A4604461946FFF7F0FFC6
:2041E000204610BD421C0178401C0029FBD1801A7047F8B502464A40D40F42004B005208CA
:204200005B089A4202D20246084611464A0023D0C30D4A00DDB2120EAD1A202D35DA49022A
:204220000126490AF6058A19002C00D0524220214F1B1146B9402A411018C20D9A4221D0AC
:20424000002C17D0012D08DCDA05801AD20F8019D207DBB200F030FBF8BDDA05801A012373
:2042600040001B06C01880185A428018CA0F1043490007E04908C2071143DA05801A80195D
:204280004008801800F010FBF8BD61000122511A001BF7E70122D2075140AAE70122D2078C
:2042A0005040A6E770B502464A40D50F40004A00ED0740085208002814D0002A12D0C40DFD
:2042C000D30D41020120C0055202490A520AE41A091812187D34914201D3641C00E0490088
:2042E000002C01DA002070BD0023914201D3891A0343400849000028F7D100290AD0914260
:2043000002D10121C90705E0914201D2012101E00121C943E005C018401900F0C5FA70BD2A
:20432000F0B507460846584087B0C00F049048000E46590040084908BC1A884105D2384689
:2043400031461E4617460B4602465800400810434CD0300D039040055900400D490D0590D7
:20436000401A0290402872DA18030121000B09050843019004980092002805D00199524212
:204380000020884100920190029840210A1A0199009800F055FA05460C466B4607CB00F071
:2043A00070FAC0197141039A0E0D0023D71756401A467A40164344D0049A002A2DD0029AC1
:2043C000012A039A15DC1205C01A914101263605001C7141D20F059ED20700930192029616
:2043E0002A46234600F0AEFA07B0F0BD38463146FAE71605224A0F46B218C01AB741012178
:204400000905001C4F4100187F41114618187941E20F10436D19644113E0E2076D081543B1
:204420006408C2071443039A01261205C01A91413605001C7141CE07400830434908C018A7
:2044400051412A46234600F070FACDE7FFE7049801224000C117121A00238B4104983146F8
:20446000C417381AA141EEE730B40124E407634030BC55E730B40124E407614030BC4FE7E2
:204480000000E0FFC217C10F504010B54018CA079623002100F010FA10BD10B500229623D5
:2044A000114600F009FA10BD0EB5C217C10F5040CA0740180021054B0293019200910A4646
:2044C0000B4600F03FFA03B000BD0000330400000EB505490291002100910A460B46019132
:2044E00000F030FA03B000BD3304000010B505F04FFA00F0A7FC10BD7047704770477047BC
:204500000300010000000000F0B51FB488B00B990998002448400999C00F49004908099151
:20452000C0070B990090490049080B9109990898A64608431CD00B990A98084318D00998CB
:2045400001244000420D4800410D099824050003000B204309900B980003000B20430B908E
:2045600050181C494018002201901446104605E0002001460DB0F0BD032801DA034600E0CE
:2045800003239C46C11A0AAE0AE05F0008ADED5B4F00F75B7D430027AA187C41491C5B1E55
:2045A0006145F2DD410004AB5A522104120C0A43240C401C0828DFDB01980290009970466A
:2045C00001910090059B049A0799069800F0BAF9D0E700000DFCFFFFF0B50C465C4085B014
:2045E000E40FE40703944C000026640859009446490802460296224321D062460A431ED0CB
:204600006200570D4A000E032303550D012402462C492405781B1B0B360B401823432643C5
:20462000614600901C46501AB44103D30098401C009002E0921800985B41002803DA002043
:20464000014605B0F0BD0020012109050746864611E064461D46141BB54106D36546521B34
:20466000B341744607430C43A646CD0740084908284392185B4105460D43EAD110461843E2
:2046800013D06046194650407140084306D06046101AB34106D20122002306E000220123C2
:2046A000DB0702E00122D2435310009874460105381C6141029C039D0019694100F035F92E
:2046C000BFE70000FD030000C20F410040020123400ADB05D207090EC0187F2901DA002027
:2046E0007047962903DC9623591AC84001E096398840002AF4D040427047000070B5CD0F91
:204700004A0009030123090B1B0519430B4BED070024520D9A4201DA002070BD074B343305
:204720009A4203DC9A1A00F09BF802E00449511888402C43F1D0404270BD0000FF03000046
:20474000CDFBFFFF4A0009030123090B1B051943094B10B5520D9A4201DA002010BD064B1C
:2047600034339A4203DC9A1A00F07AF810BD03495118884010BD0000FF030000CDFBFFFF22
:20478000C20FD207400040080BD0C10D0723DB01C91840020905400A1143C2084007114304
:2047A0007047002001467047CB0FDB07490010B5490802460A4307D00A0D07240903E4016A
:2047C000090B121B002A01DC002010BDC900440F0C43C100E018D205801800F065F810BDF7
:2047E000F0B51FB40646002082B005464024019100901BE0019922460F46304600F030F8F2
:20480000049A059B801A994110D310461946224600F016F8361A8F41019722460120002186
:20482000009F00F00DF838184D4100902046641E0028DFDC019B00982946324607B0F0BD2C
:2048400010B5202A04DB0146203A9140002010BD914020239C1A0346E3401943904010BDDC
:2048600010B5202A04DB0846203AD040002110BD0B46D340D0402024A21A914008431946B5
:2048800010BD10B5202A06DBCB170846203A1041C1170B4306E00B461341D0402024A21ABF
:2048A00091400843194610BD002904DA401C490001D140084000704770B40024050C05D1C4
:2048C0001024000402D1002921D01124050E01D100020834050F01D10001241D850F01D1CD
:2048E0008000A41C002801DB4000641C002908D020252E1B0D46F540A14000D0012129435E
:20490000084301061B1B000ADB1D02D5002070BC7047DB05181880180029F8DA401C4900EB
:20492000F5D170BC40084000704710B5002B08DA0024401C614192185B411A4301D1400895
:20494000400010BDF0B51FB482B005460C0003D0084610F027FD02E010F024FD2030024669
:20496000009021462846FFF76BFF049B059A04460F4618431143084314D0184610431BD01B
:20498000009840210A1A18460599FFF769FF05460E46009A05990498FFF752FF084305D0C6
:2049A000012004E02046394607B0F0BD0020C11705430E432C43374300990E986305401A2E
:2049C0007905E40A00220C43FD0A0A3002D500200146E9E70105101969410C9C0D9D001967
:2049E0006941FFF7A2FFDFE703780022002B04D040180378521C002BFAD110467047704719
:204A0000B032691A7964C7514A0009030123090B1B0519430A4B10B5520D9A4202DA0020E1
:204A2000014610BD064B34339A4203DC9A1AFFF717FF10BD034BD218FFF702FF10BD000066
:204A4000FF030000CDFBFFFF10B5002904DB0124E40740428C412146002B04DB1C4601236B
:204A6000DB075242A341994200D1904210BD0000064C0125064E05E0E36807CC2B430C3C0C
:204A800098471034B442F7D3FFF71EFB447F0108647F010870B58C180578401C6B075B0FEE
:204AA00001D10378401C2A1106D10278401C03E006780E70401C491C5B1EF9D12B0705D477
:204AC0000023521E0DD40B70491CFAE70378401CCB1A921C03E01D780D70491C5B1C521EF6
:204AE000F9D5A142D8D3002070BD000070B50025044600280AD9244EE80081194968305841
:204B00000A2202F0E3FB6D1CA542F5D31F4EB06971150843B0611E4B9868890508439860BF
:204B200098680028FCDBD868012149030843D860586907210843586100210125002C07D905
:204B40009A6A2846884002439A62491CA142F7D37069284370610F4881680F4A11438160E5
:204B6000C4600E4941610E490161816829438160D86803210843D8609868284398609868DF
:204B800004210843986070BD587C0108001002400024014000000240A02A0000E0230020BD
:204BA0004024014070B4094C0021E2688A420AD9074D8A008358AE589B195B088350E268CA
:204BC000491C8A42F5D870BC7047000000000240E023002010B50C460521FFF7BDFA154947
:204BE000154B4218002015494143C91891421BDB12494143511A124A891822185278245C84
:204C0000101B484302D519210C3801E019210C30FFF7A2FAC8214C430A49201840180A49F2
:204C200040188100401810BD401CC0B20428DAD3002010BDD08AFFFF78ECFFFF881300008D
:204C400010270000F0D8FFFF30750000F8B50C4D01270C4904466F704DC94DC408682060EF
:204C6000AF70103C04F09EF86078012803D16420686100F0E7F804F095F800206870F8BD20
:204C8000800200202C150020F8B56A4F7878002869D17869002801DD801E7861664E301DFA
:204CA00004F048FE756800206A1C0121002A31D0B468631C2ED0614B5F4A1970B8700646FF
:204CC00011703869401C38615278397913460B4369D0594B002A6DD0022A7DD0032A42D19D
:204CE0004621FFF723FA00293DD155480168491B0A4600D551424068001B034600D5584266
:204D0000022901D8022868D901203870FB600220BA6085E0307072783B7914461C4312D086
:204D20003C78002C2AD03870BA68131E00DA5242F96814460A1E00DA49428C4218D9002BFE
:204D400012DD072111E03C4C05466070201D04F063FE20460C3004F05FFE00213848C94376
:204D60003D6101604160F8BD08217170B870F8BD002A01DD0521F8E70621F6E7002B03D0E8
:204D800071703871B870F8BD012A07D0062A05D0052A03D0082A01D0072A02D1B978002942
:204DA000F1D07070F8BD2448C560046101203E613871F8BD0029FCD0D968691A00D5494270
:204DC0001A69A21A00D55242022901D8022A0BD918488561C46101E00FE01DE00120386125
:204DE000032058703E71F8BDAF21400089008842F9D9022058703E71F8BDD868281A00D58A
:204E000040421969611A00D54942022801D80229F2D904205870F8BDF878002805D0401E4E
:204E2000F87004488561C461F8BD3E70BE60FE60F7E70000800200202C15002011010020C1
:204E40009802002070B50A4E00253570B5703571084CB560F56025706570201D04F0DCFD54
:204E600020460C3004F0D8FD01207070756170BD800200202C150020F0B585B000206A4616
:204E800010809B494868908000047DD59948049099480390994802906846808807073F0F1A
:204EA00024D09748B9000E18306869460880088800046AD53068934908403060282092492F
:204EC000784344186834A07A0028207873D002F09DFA400420786FD502F0A0FA05006CD08C
:204EE000E1882A46206903F01FF88EE068468088C00613D482480168844A11400160049C22
:204F0000207802F0BBFAA06121690818206180480021006842687C489047DAE0784D039C72
:204F20002868694608800888000512D5207802F095FAA0610246A188029802F0F5FF286893
:204F40007049084028607248006881686E488847BFE00888000444D528686A4908402860D9
:204F6000207802F07BFAA061002808D00246A188206902F0D9FFA169206940182061644855
:204F800000210068026801E0AAE05AE05E4890475748006981B25F480A18E0683E280DD964
:204FA000C102090CC00601D1491E89B288020121C903084309E015E01EE026E0C103090C61
:204FC000C00701D0491C89B288021080286852490840012109034840490048404F490843A2
:204FE000286076E002F03AFA050012D0A1882A46206902F099FF0CE002F020FA050004D049
:2050000021892A46206902F08FFF2078002101F07DFAA0694019A0612069421922616069B9
:20502000002802D0E168A94206D939482178006802683548904704E083B22178324800F007
:205040005DFD68460088000643D5282047432E483C1830682D49084030601834A07A002892
:2050600020780FD002F0D2F94006207815D502F0D5F9A06100281AD00246E188206905F032
:20508000E9FD14E002F0FAF9A061002813D00246A188206905F0DEFD0DE002F0CFF9A061D3
:2050A000002804D002462189206905F0D3FD2078012101F02BFA207802F0E0F9A0612169F6
:2050C0000A18226163692178002B0BD00E4800F095FD0748406869468880000400D5DBE6A0
:2050E00005B0F0BD0A480068426807489047F0E7405C004038240020882400203024002055
:20510000005C00408F0F0000202400200F8F0000B4030020066000408FBF00008080000088
:20512000F0B4034600207D261E4DF6001E4F0246002B10D09C0064196469A41B0BD0FF3CE3
:20514000F53C07D0FF3CF52C05D1F8182038C07F032812D00120002922D08B005B19124CC8
:205160005B6961189B1B2039002B0CD0FF3BF53B08D0FF3BF52B06D101E00220EBE7CA7F4B
:20518000032A08D00122C97FC30706D0401C4143881A401E03E00222F5E741438818C0B2A6
:2051A000F0BC7047E4050020487C010810B51848C18C1848806A48434B214901FEF7CCFFF9
:2051C000154CC20F101821684010CA0F521852108018421A322A02DD0846323004E00A1A10
:2051E000322A01DD08463238C200101A5D22514308186421FEF7B0FF6168CA0F5118C20F99
:2052000010184910401008182060606010BD0000B804002014060020A0020020024630B48C
:20522000084800290CD0084B1578040A6C4064001C5B00024440491E521CA0B20029F3D10A
:2052400030BC7047FFFF00005C710108FFB593B004460E46159802F01FFB00208100159B38
:20526000401C5B586A46C0B253500428F6D300200AAA8100159B401CCB181B69C0B2535088
:205280000228F6D30027BD000AA8415978008019028B9446914203DDF7490AA841511AE042
:2052A000028C914203DAF5480AA9485113E02023C35EC81A0AA948517D21C9004843614609
:2052C000891A64225043FEF747FF0AA94851EB4941180AA841510AA84259E9497F1C521836
:2052E000FFB24251022FCED30027301D1090BD00684641597800325A9446914203DDDE49C7
:205300006846415155E080190289914203DADB48694648514DE00B461021415E5B1A694667
:205320004B51E178002901D1022F10D0642B27DDFF21F031643B4B43008A6146091A642093
:2053400058436439FEF708FF6946401D28E00298CC49002809DD4843B188B28A891A64221F
:205360005043FEF7F9FE029023E048431099B38A09896422591A5043FEF7EEFE029018E01F
:205380006421CB420EDAFF21F0316433008A4B43811A642058436439FEF7DEFE6946401F6D
:2053A000485106E014211846FEF7D6FE01466846415169464A59B2487F1C10180CAAFFB215
:2053C0005051042F93D3A578AF4F0020AB00DB1986000CAA96591A5C401C92005218803A06
:2053E000C0B2D6670428F3D3E078002813D1E80711D1039B009800930390029B01980290B3
:20540000A24D0193002082008B58401CEB1AC0B28B500428F7D39E4B00208200401C8D5814
:20542000C0B20E469D500428F7D304202118203149780C2934D20A007A4412799218974441
:20544000050505050D0D0D0D19192424211820314978890071588200B15024E021182031DC
:2054600049788A00159951188968642251438200B15018E02118203149788A000AA9511853
:205480008039096E8200B1500DE02118203149788A0015998958642251438200B15002E089
:2054A00077498200B150401CC0B20A28BED3794D0020A1788A0074495118095C401C89001F
:2054C0008A19803A49198039D26FC0B2CA670428EFD37148017871480278084610432DD07F
:2054E000002914D0002A3CD10220A3789D00664BEB181B5C401C9B009D19803DEF6F684DE6
:20550000C0B25B19803BDF670428EED327E0002A25D0002925D10020A3789D005A4BEB18F2
:205520001B5C401C9B009D19803DEF6F5C4DC0B25B19803BDF670228EED310E0A3789D0009
:20554000514BEB181B5C401C9B009D19803DEF6F534DC0B25B19803BDF670428EED30029D0
:2055600011D0A378484900204D4F9B005D18295C401C8900CB19803B89198039DB6FC0B2B2
:20558000CB670228F3D3002A11D0A3783E490220434A9B005D18295C401C89008B18803BB5
:2055A00089198039DB6FC0B2CB670428F3D325462035E87A012811D1A87B00280ED0697B76
:2055C000287BFFF7ADFD0006C00D0019008E64214843A97B8A0091198039C867002701E0B6
:2055E000022F64D0E619E0360E203056622148430121890340181090B80069461190095860
:205600002848081800D54042C0031B49FEF7A4FD1290109903F086F8FF21F5314843B17A2E
:205620004843109912980ED503F07CF8FF21F5314843B17A484301218903401AC117490C86
:205640000818C2130DE003F06DF8FF21F5314843B17A4843012189034018C117490C081836
:20566000C21311996846435805498B421CDB5318119A83501BE0000050C30000B03CFFFF6F
:20568000F0490200F4010000C4640108E0930400B0120020302300204B0300204C03002000
:2056A0004015002010B6FDFF8B1A119A83507F1CFFB2042F94D3E2781292A0786B4B0027B7
:2056C0008000C0181190C05D401EC6B21298002801D1022E26D0B000694610900958644808
:2056E00008180521FEF738FD002821DDA119C7268E5714215F4A4E43911B414305D55E4869
:2057000008181146FEF728FD04E05C4808181146FEF722FD80198100411859480A18109807
:2057200069460A507F1CFFB2042F0BD21198CAE7A119C7268E5714214E4A4E43B118414373
:20574000E3D5DCE72146F2310298FFF743FA2646A0360290B078002826D0E87A012803D1FE
:20576000A87B717988421FD030796F468100C8198038C16F3E48081802D50722B25601E02C
:205780000622B25664215043FEF7E6FC024670798100C81908217156FF268038F5367143AB
:2057A000C36F89185918C167EE7A00206B46012E03D1AA7B411C8A4211D081005A58314F5F
:2057C000BA4202DB7F00BA4200DD5F5022188032127E002A03D05F582B4AD21B5A50401C51
:2057E000C0B20A28E3D30027012E03D1A97B781C814227D0B8006946109009581C480818C7
:2058000007D5E119A031CB7C64215843FEF7A4FC06E0E119A0314B7A64215843FEF79CFCC2
:20582000E219BD2151566422514308181749884202DC4942884200DA0846114942181098CD
:2058400069460A507F1CFFB20A2FCDD300246D46A00028586421FEF77FFC62001699641C9D
:20586000E4B288520A2CF3D317B0F0BDC464010810B6FDFF1027000078ECFFFF8813000021
:20588000F0490200A0860100E093040060EA00008100064808180168490405D50168044AAF
:2058A0001140044A1143016070470000005C00408F8F000080C0000081000648081801688B
:2058C000490605D50168044A1140044A1143016070470000005C00408F8F0000C0800000E3
:2058E00030B5FFB0C2B000F0D3FD0325084C2D022A4621466846FEF743FC204600F068FDC3
:205900002A466946204600F08FFD7FB042B030BD00F0010803498A69CB131A438A610121F8
:2059200081707047405C0040CA09490610B5490E282359430C18002A01D0183400E06834D7
:20594000A07A0028607814D00028207822D0FFF79FFF2078FFF7B0FF207803F0CBFF2078D9
:20596000002103F0B7F82078002103F07BF8002010BD0028207806D0FFF79EFF2078002176
:2059800003F0A8F8F3E7FFF783FF2078002103F069F8ECE7FFF77CFF2078FFF78DFF20781F
:2059A00003F0B8FF2078002103F05CF82078002103F090F8DBE770B5CA0906D04906490ED3
:2059C000282251430C18183403E0282251430C186834607800250028207806D0FFF76CFF04
:2059E0002078302103F076F806E0FFF751FF03212078090303F036F8A570002070BD70B5C1
:205A00004D060E066D0E282169430C180021002E03DA01206076183401E068346170E2608C
:205A2000E3702800207002D16162E161216221616161A161A170002B06D0012B0CD0022B73
:205A400005D0032B0CD104E00121490206E0002104E00321490201E00121890203F052F8F0
:205A6000A07A03252D0300281DD0207802F0BCFF2289E188207802F04DFF607800282078D8
:205A80002BD0FFF705FF2078FFF716FF207803F031FF2078002103F01DF82078002102F047
:205AA000E1FF002070BD6078A1880028207807D002F0F2FF2078FFF7FFFE207820211AE0E0
:205AC00002F0A2FFA08981B2207802F0ADFF2078FFF7DEFE20782946E1E7FFF7D9FE207803
:205AE000FFF7EAFE207803F015FF2078294602F0B9FF2078002102F0EDFFD2E738B54906EC
:205B0000490E2824002561430C180095E367A2676834A561E16818468B4203D9401A009130
:205B2000606101E000936561A07A002800980BD082B26178207802F005FF03212078090352
:205B400002F090FF002038BD81B2207802F06CFFF3E70000F0B40B4D0B4E0C4F0022017169
:205B6000D3B298004019046834401C433C430460521C022AF4D3802001430548C160F0BC2E
:205B800070470000005C00408F8F000080800000405C004070B5CA0906D04906490E2822FA
:205BA00051430A18183203E0282251430A1868321078012109030123002807D054789370C0
:205BC000002C10D0102102F085FF0EE0084C2068084D28404840102148400749084320602F
:205BE0009370002070BD02F03DFF002070BD0000005C0040BFBF00008080000038B5490684
:205C0000490E28244C4300252418009521762563E362A262616A183418468B4203D9401A7C
:205C20000091606101E000936561A07A002800980BD082B26178207802F084FE207801F081
:205C4000E5FB40060CD521890BE082B2A188206905F000F8009881B2207802F02DFF09E06B
:205C6000E188009882B2206904F0F4FF6178207800F04CFC2078302102F02CFF002038BDBB
:205C800010B50122827000210171C2608160104602F03AFE002002F037FE002002F040FF7C
:205CA000002002F029FEBF2002490002086002F02BFE10BD9003002030B40C064906490EE0
:205CC000282569430818002C01DA183000E0683099B2002A07D001228272C180190C018199
:205CE00030BC00207047002282728180F8E7000070B5FFB00446194981B000200870E08042
:205D000008212046FFF78AFAE08015480078002805D008220021204610F086F918E000F030
:205D2000B7FB01260F4D7602324629466846FEF727FA284600F04CFB32466946284600F0E1
:205D400073FB08222146084800F06EFB00F064FB0A2002F037FD7FB001B070BD3C03002090
:205D6000A802002000F0010800F20108322101706421417002494A7982700979C170704701
:205D8000D8040020F0B50446304883B001782046083000262E4D0090002914D00820694641
:205DA000888001AA002120460FF0F6FFF42069468880A87AF4214843083081B201AA00987A
:205DC0000FF0EAFF16E0A87A052800D3AE7221490868496861602060A87A00282FD01E4927
:205DE000022801D9042805D880024118F4220098FEF7C6F9E788E68008212046FFF70EFAF7
:205E0000B8420AD032202070642060706879A0702879E0702046FFF76BFF2046C030058FE6
:205E20000687F4210098FFF7F9F9A84205D0204600F0D6F9204600F013F803B0F0BDF42285
:205E400006490098FEF79CF9D4E70000A8020020D804002000F2010800DC010800F0010877
:205E6000F0B53D4AC3B0002111700246C032118708301446F4210090FFF7D0F920873748F3
:205E8000374C0078002809D0A07AF4214843083081B2F422009810F0C7F857E000F0F8FA5B
:205EA000A07A00281ED02F4D022830D80226301A2D4F8002C119F42201A8FEF761F938462E
:205EC00000F086FAA07AF42280024019009900F0ABFAA07AF422301A8002C01901A900F0AA
:205EE000A3FA31E0FF25214C01352A46214602A8FEF746F91E4E304600F06AFA2A4602A927
:205F0000204600F091FAF422304600991AE004281AD80426301A174F8002C119F42201A86E
:205F2000FEF72EF9384600F053FAA07AF42280024019009900F078FAA07AF422301A800288
:205F4000C01901A900F070FA00F066FA0A2002F039FC43B0F0BD00003C030020A8020020FA
:205F6000D804002000DC010800E0010800F2010800F0010800E8010830B400210F4C0D46BF
:205F800063104A00845212181382491C15810429F7D300214A00121814839383491C15847D
:205FA0000229F7D30146012220310A71044BC3844A713320C87230BC70470000FF0F000027
:205FC000DA160000F8B5174800260078002808D02E20694608806A46134914480FF0DCFE61
:205FE00004E02E2212491148FEF7CAF80F4D2A212C8D2E852846FFF711F9A04204D028465D
:20600000FFF7BAFF00F01AF8AC8DAE8504210948FFF704F9A04203D00748867200F04AF8CC
:20602000F8BD0000A8020020CC040000B804002000F80108E2040020D804002030B5184CE9
:2060400099B0002020852A212046FFF7E7F8208514480078002805D02A22134920460FF029
:20606000E3FF17E000F014FA104C68462188018061880F4D4180284600F0AAF92A22084971
:20608000284600F0D1F904226946204600F0CCF900F0C2F90A2002F095FB19B030BD0000DB
:2060A000B8040020A8020020CC0400002AF8010800F8010830B5184C99B00020A085174808
:2060C00004210546FFF7AAF8A08515480078002805D00422134928460FF0A6FF16E000F047
:2060E000D7F9114C2A2221466846FEF749F8204600F06EF92A226946204600F095F904221A
:2061000029460A4800F090F900F086F90A2002F059FB19B030BD0000B8040020E2040020CE
:20612000A8020020F604000000F801082AF8010810B5FFF747FF0348FFF724FE00F004FB1C
:2061400010BD0000E80400200648074A01684068914204D10549884201D10120704700202C
:206160007047000000F4010812F50F35BAAE958400B50B4983B0086849680191009000F030
:2061800087F908226946074800F04EF900F044F902F008FE0A2002F015FB03B000BD00005F
:2061A0005C73010800F3010800B50B4983B08868C9680191009000F06BF908226946074810
:2061C00000F032F900F028F902F0ECFD0A2002F0F9FA03B000BD00005C73010800F4010864
:2061E000F0B504463EA1086883B04968009026460520203601910025B073F5722F467900D7
:206200003948091908863846313069464871F800C01B001907224230FDF7B2FF7F1C092F07
:20622000EDD3357300207573FF2122182032401C51700A28F9D3204601228030427082704A
:206240002A494260A1612A4961617D214901E1612849E1602849A160284921613570058186
:206260008A210D538581056121464561A0318D700A71022048710D723220C8718871002053
:206280006426221898271346BD54A0325672D6745577042801D2C033DD71401C0A28F0D3D0
:2062A000114A00202318C033DD7243001B19C033401CDA820A28F5D300202218E032967256
:2062C000401C95730428F8D30020192223184243E033401C9A740528F7D3CD7003B0F0BD37
:2062E0004D6F646530310000DC0500006810000070170000581B0000D0200000901A0000CB
:206300000848416949070CD510B504214161064801880122114301800449416301F0C6FF50
:2063200010BD70470004014000200040AC0D000022484169C90440D510B5012109034161F0
:206340001F4C6078002808D01E4821780068002904D0002121706060A06010BDA168411AF3
:206360000C2901D8092901D8A06010BD0821164803F058FB1449154AFF2300280FD0012064
:20638000A0708879CC790007000D20430C7949792407240D0C43181A5460106010BD0020FB
:2063A000C04310605060CB714B718A790F2002438A710A7902430A7110BD70470004014044
:2063C00070030020200100207C03002084030020F8B5054602F006FA0B20000400F068F83A
:2063E0000746042811D10B4C2069022630432061656120694021084320610B20000400F0AB
:2064000057F807462069B043206102F0EFF93846F8BD0000002002400248016980221143CA
:206420000161704700200240F0B5521C560883B00C460546761E26D3144F2088019002F085
:20644000D1F90B20000400F033F8009004280ED13869012108433861019828800B20000476
:2064600000F026F80090386940084000386102F0BDF90098042802D0032003B0F0BDA41C3B
:20648000AD1C761ED9D2042003B0F0BD0020024004480169090603D5034941600349416097
:2064A000704700000020024023016745AB89EFCD154A0146D3680420DB0701D0012019E031
:2064C000D368DB0601D5022014E0D3685B0711D503200FE0D3680420DB0701D0012008E004
:2064E000D368DB0601D5022003E0D3685B0700D50320491E012803D0002900D105207047D7
:206500000029E7D1FAE7000000200240094B8000094AC018002907D0012904D1016811409F
:20652000064A11430160704701681140044A114301607047005C00408F8F000080C0000031
:20654000C08000001422064B4243D2185173054A10188030027A8A4200D0017270470000D8
:2065600050150020E80400201422064B4243D2181173054A10188030827A8A4200D081725E
:206580007047000050150020E804002014225043034A83185B7B002B00D111547047000014
:2065A0005015002014225043044A30B480183CC83CC10068086030BC7047000050150020CA
:2065C0001421484301494018406870475015002058480078002870D0F0B557488DB01EC88E
:2065E0006D461EC51EC81EC50FC808AF0FC700240125264621461420504F4143C819827889
:20660000002A06D08368002B03D14D4B836045704360477B002F21D0012A02D0002A08D1DB
:2066200003E04268002A04D118E0464A4368934214D03A07970E6A46BA18404B52697D2790
:20664000FF005E54D21B20D0BA42427B03D11209032A1ED002E01209022A1AD0027B002A2F
:206660001ED013079F0E6B46FB185B697D27FF004670DB1B0FD0BB4203D11209032A0DD0B9
:206680001FE01209022A09D01BE0427B1209012AE4D15D54E2E71209012A12D1457002E0EE
:2066A0004278002A0DD00A4624498E5446708178002903D08168416001E039E0466006613E
:2066C00014E01E4B5A5C002A10D08278002A14D0012A1DD08268002A15D00269D107416898
:2066E0001CD0184A914201D2491C4160641CE4B2022C00D27EE70DB0F0BD124F4268BA42B4
:2067000001D2521C08E05E54032001F0FDF9EDE74268002AF7D0521E4260E7E7002901D04B
:20672000491EE2E7521C0261032001F0EDF9DDE770470000A9020020E4050020501500208A
:20674000E09304007F8D5B0070B40020104D114E0446142201465143745489194C702A1898
:2067600080320C61137A4B73937A0B738300127B5B1980338A701B698B60002A01D04B60DE
:2067800000E04C60401CC0B20228E2D370BC7047E8040020501500200149087070470000D3
:2067A000A90200201421484303494018017B002901D10121417070475015002070B51423C8
:2067C000134C4343E55C002D21D11B199C788C4202D19C6894421AD0002499701C619A6023
:2067E000002901D05A6000E05C608400094B094DE318803328181C698030944202D1047BD0
:206800008C4204D01A6101730248FFF729FB70BD50150020E804002010B500F053FF10BDF1
:20682000F7B557077F0F0120B84086B0401E0290C04303900698D11086684068C01DC00831
:206840000818401ED11000910190814247D80820C01B04900199009888420FD1069840681C
:2068600041070BD04007400FC019012181400298491E4140C8430290000A0390009800252A
:20688000C1011848091807980C180698006800281DD92078029908403178B94008432070D6
:2068A000002F09D031780498039BC1402046803002781A4011430170641C761C680701D1EA
:2068C00002F070FA06986D1C0068A842E1D802F069FA00980199401C00908842BAD909B0A1
:2068E000F0BD0000201F002070B50546C808C001C31848071446400F0821081A074E084AC6
:2069000061180CF085FC02F04DFA2919054B324628460CF07DFC02F045FA70BD201F00209E
:2069200078150020F815002010B5024B0CF070FC10BD0000201F0020F8B505460FA00068C8
:206940000C4600901E460A211046FDF7EFFB0F460A21FDF7EBFB6A46107808181070507898
:206960003818507002F01EFA334622462946684600F096F902F016FAF8BD00003030000069
:20698000002B2BD0FFB505465B1ED8B2012481B01646002805D0401E0A21C0B24C4300286E
:2069A000F9D102F0FFF9002C14D00D4F21463046FDF7BCFB0A21FDF7B9FB880038582946D5
:2069C000029AFFF72DFF0A2120461435FDF7AEFB0400EBD102F0E6F905B0F0BD70470000D8
:2069E000D8020020FFB515462AA25168106883B0926800271E46029201910090002D01DA1B
:206A000001276D427D24E40004200A214C430146401EC0B20029F8D102F0C4F9A54200D3CA
:206A2000651E032E00D9032602F0BCF909240A212846FDF791FB6A4630311155641EE4B224
:206A4000062C02D12E21917105240500EFD102F0A9F9641C0020E4B2002E694618D08919C1
:206A6000C87102F09FF9062C00D30524002F04D0641EE4B22D2168460155684600190C9B4A
:206A8000049A039900F00CF902F08CF907B0F0BD8871E6E70000000000302E303030000038
:206AA000F7B51EA1086882B0496800901D481646019182422FD80124012E03D30A2044438F
:206AC000A642FBD202F06EF9012C04D00A212046FDF72CFB044600256F46002C10D0214664
:206AE0003046FDF723FB0A21FDF720FB303179556D1CEDB20A212046FDF718FB0400EED122
:206B00000020785502F04EF96846039A029900F03BF902F047F905B0F0BD000030303030F1
:206B2000300000009F860100FFB581B015460F4606460A9C02F036F9F817400FC019C10857
:206B4000C9007B1A0499C010534AC00159188018C91B8019082928DA049900228F4208DCDF
:206B6000012199401143CAB204995B1C7F1C8F42F6DD002C0ED0012C0AD1D143C9B2AE4266
:206B800006DC0278761C0A400270401CAE42F8DD05B0F0BDAE42FBDC0178761C1143017031
:206BA000401CAE42F8DD05B0F0BD790716D001219940491EC943C9B2012C01D1C943C9B27D
:206BC0003246AE420ADC002C16D00378012C17D04B400370401C521CAA42F4DDFF1DF81716
:206BE000400FC019C2100498FF27401CC117490F0818C010844618E003780B430370E9E78F
:206C00000B40E6E72448D101081880193146AE420ADC012C25D0002C25D003787B4003702C
:206C2000401C491CA942F4DD521C9445EADC1B49049808400728B6D00498C117490F0918E0
:206C4000C810C2011448C9081018049AC900521A80190121521C9140491EC9B2012C04D094
:206C600005E00023DBE70770DAE7C943C9B2AE4299DC002C0AD00278012C0BD04A400270A2
:206C8000401C761CAE42F4DD05B0F0BD02780A430270F5E70A40F2E7201F002007000080C5
:206CA000FFB5D017400F8018C310354CDB011B19C0085C18C000151A0126AE40761E83B0E7
:206CC000F04301900398007800282BD00820401B009003980078C1002A4808180021FF38E9
:206CE0000138069A002A1FD0012A227831D00378AB405A402270002D07D00378009AD3401E
:206D00002246803217787B401370401C491C641C0829E6DB02F046F80398401C0390007827
:206D20000028D6D107B0F0BD227803783240AB401A432270002DE8D00278009B019FDA400B
:206D4000234680339C461B783B401A4363461A70DBE703783240DB43AB401A432270002DC3
:206D6000D3D00278009BD2431A41234680339C461B78019F32403B401A4363461A70C4E792
:206D8000201F00206C730108F7B584B004980078002858D0D017400F8018C108C900511A9D
:206DA0000191C0102A49C001401801990390C8B2401C0290049806210078264A41438E187B
:206DC0000199059ACDB20399C03E8C18792801D10298C5B20020009000200121A940052237
:206DE000171A33780122BA401342225C01D00A4300E08A432254401C0628F0DB6D1CEDB209
:206E0000761C082D01D30025803401F0CBFF0098401C00900628DFDB049800784138192809
:206E200004D804984078413819280ED90498407825280AD00598801D05900498401C0490AB
:206E400000780028B6D107B0F0BD0598C01DF3E7201F00206C76010810B500F049FC10BD42
:206E6000FFB583B01C4615460E4601F09BFF0398A84204DD03950546304626460446A64232
:206E80000CD1039CAC4207DC314620460C9A00F08DF8641CAC42F7DD07B0F0BD0398A84282
:206EA00011D1A64201DA354601E025463446A542F2DC29460C9A039800F078F86D1CA542B7
:206EC000F7DD07B0F0BDA64235DA00040090039837042A1AA11B8A4207DA1004FDF73CF92F
:206EE000401C01263604019007E001200004019008041146FDF730F9461C009839140014CC
:206F00000C9A00F053F801990098BF19401800900120C0033918009A0914101800140C9AD0
:206F200000F044F800980014A842ECDB3814A042E9DB07B0F0BD000400901B4930044718E7
:206F40000398311B2A1A8A4207DA1004FDF704F9401C01263604019007E001200004019069
:206F600008041146FDF7F8F8461C0098391400140C9A00F01BF801990098BF1B40180090D2
:206F80000120C003391A009A0914101800140C9A00F00CF800980014A842ECDB3814A042A2
:206FA000E9DC07B0F0BD0000FFFF000030B4CB175B0F5B18DD08ED004D1B0121A940DB10D7
:206FC000094CDB01181803191878002A05D0012A05D04840187030BC70470843FAE78843FB
:206FE000187030BC70470000201F0020FFB581B01D460A9C16460F460B4600940198FFF7F4
:207000002FFF32462B46394610460094FFF728FF2B46009419463046019AFFF721FF019AAD
:207020003B46009429461046FFF71AFF01F0BAFE05B0F0BDF8B50C4615460746A24200D2FF
:207040000D4600263B237E2214217C200096FFF7CDFF01F0A7FE2046262148432946FDF75F
:2070600065F804463846262148432946FDF75EF8231801467E2215317D2015330096FFF787
:2070800053FD01F08FFEF8BDFFB581B00B9F0A9C15460E46A74200D227460020019A009016
:2070A00073191046921C5B1CFFF7A0FF01F07AFE0498394620186843FDF738F804460498C3
:2070C00039466843FDF732F881190020019A009033191046491C521C5B1CFFF725FD01F08E
:2070E00061FE05B0F0BD0000F8B50E460446174637491046FDF71AF80A21FDF717F8880095
:20710000344D324628582146FFF78AFB01F04AFE31493846FDF70AF80F460A21FDF706F87B
:20712000880028583246A11DFFF77AFB01F03AFE2146F21C0C31A86AFFF772FB2749384668
:20714000FCF7F4FF0A21FCF7F1FF88002146285832460E31FFF764FB01F024FE7D21C90046
:207160003846FCF7E3FF0A21FCF7E0FF88002146285832461431FFF753FB01F013FE2146E6
:20718000F21C1A31A86AFFF74BFB01F00BFE64213846FCF7CBFF0A21FCF7C8FF88002146BA
:2071A000285832461C31FFF73BFB01F0FBFD0A213846FCF7BBFF0A21FCF7B8FF880021465B
:2071C000285832462231FFF72BFB01F0EBFDF8BDC0270900AC02002060EA0000102700007B
:2071E00070B5144631A20D4606465168106884B0926802920191009001F0D4FD2E492046EA
:20720000FCF794FF0A21FCF791FF08466946097840186946087029492046FCF787FF0C469A
:207220000A21FCF783FF08466946497840186946487023492046FCF779FF0A21FCF776FF61
:2072400008466946C97840186946C8707D21C9002046FCF76BFF0A21FCF768FF0846694605
:20726000097940186946087164212046FCF75EFF0A21FCF75BFF0846694689794018694653
:2072800088710A212046FCF751FF0A21FCF74EFF08466946C979002340186946C8712A46A4
:2072A00031466846FFF7FCFC04B070BD30303A30303A303000000000C027090060EA00000C
:2072C0001027000010B500F081FA10BD70B504464D001720FD21C006164689002018FCF793
:2072E0003BFF01460120400488401F494A691043486121680320A84081432160092E18D0D1
:207300000A2E1FD0082E2AD021680222AA40114321602906090F0F22002917D06900203960
:20732000636A8A40934363628E40616A0E43666215E022680121A9400A432260E2680A4379
:20734000E2600CE021680143216008E0236A69008A4093432362226A8E4032432262A16852
:207360000143A16070BD0000001002400E4881690122114381610D48416902221143416197
:207380000B48026881140A430260C2680A43C2600848016803220902090A92071143016009
:2073A000054980200860704700100240000001400004014004E400E000E100E00E4882691E
:2073C00001210A4382610D4881688215114381600B48026804210A430260C2680A43C26027
:2073E00008480168FF2212049143402213041943016005480260704700100240000001409A
:207400000004014004E400E000E100E0024980004018006880B27047005C004005490969CE
:20742000C00089B208180449401840888005800D70470000405C00400060004005490969BF
:20744000C00089B2081804494018C0888005800D70470000405C004000600040054909691F
:20746000C00089B2081804494018C0888005800D70470000405C00400060004005490969FF
:20748000C00089B208180449401840888005800D70470000405C004000600040F0B408254E
:2074A000154E1649164A002003460C0F0A2C02D24700303401E047003734D4554400A418B5
:2074C000401C0901C0B26370A842EED30D4904240020320F0A2A02D24500303201E04500A2
:2074E00037324A5542005218401C3601C0B25370A042EED3F0BC70476055CA0FD91985A75E
:20750000DE030020EE0300200278022A04D20A78D208521C027008E0052A0CD20A78D30750
:2075200003D1083A9210921C02700878142801D2401C087070470522F6E7000070B5374CAD
:20754000092200212046FFF7C1FE092201212046FFF7BCFE092202212046FFF7B7FE0922D7
:2075600003212046FFF7B2FE092204212046FFF7ADFE092205212046FFF7A8FE09220621DF
:207580002046FFF7A3FE092207212046FFF79EFE234C092203212046FFF798FE09220521A2
:2075A0002046FFF793FE1F4D092207212846FFF78DFE092204212046FFF788FE09220221B0
:2075C0002846FFF783FEA08A08218843A082A08A20218843A082A88A80218843A882A88A34
:2075E00004218843A882A08A1025A843A082322001F0E8F8A08A2843A082322001F0E2F80E
:20760000A08AA843A082322001F0DCF8A08A2843A082322001F0D6F870BD000000100048CF
:2076200000040048000C004818B40823154A0029918A01D0194300E099439182918A2023B6
:207640009943918210498A8A04239A438A820F4A948A240A24029482948A04439482888A50
:2076600080221043888200200090401C00900328FBD3888A90438882888A1843888218BC3C
:207680007047000000040048000C004800100048044908220028888A01D0104300E09043B3
:2076A000888270470014004810B5054C092203212046FFF70BFEA18A08229143A18210BDCA
:2076C0000014004810B5012189020348FCF77FFD01F068FB10BD0000201F002010B50021BC
:2076E000AE20FFF7A1FF0021A520FFF79DFF10BD10B5FFF723FF0021E220FFF795FF002136
:20770000AE20FFF791FF0021A120FFF78DFF0021A620FFF789FF0021A420FFF785FF0021CC
:20772000A220FFF781FF0021C020FFF77DFF00212F20FFF779FF00212420FFF775FF124C93
:207740003220207000218120FFF76EFF20780521FCF7ECFC1E30C0B20021FFF765FF01F05D
:2077600021FB0021AF20FFF75FFF012189020748FCF72DFD01F016FB00F028F80448818A27
:2077800008221143818210BDE8040020201F00200014004810B5002801DA002002E064287E
:2077A00000DD6420084C002120708120FFF73CFF20780521FCF7BAFC1E30C0B20021FFF753
:2077C00033FF01F0EFFA10BDE8040020F8B50026B02730463843C0B20021FFF725FF0E4826
:2077E000F1010D1800210420FFF71EFF00211020FFF71AFF042428780121FFF715FF6D1C3D
:20780000200701D101F0CEFA641C842CF3DB761C082EDEDBF8BD0000201F002070B5064DAB
:207820000024E0004119496828580922FFF74EFD641C022CF5D370BD387C010810B40228FF
:2078400000D300200A4A0123002907D0C00011588C8A8018007983401C4306E0C00011583C
:207860008C8A8018007983409C438C8210BC7047387C0108024803490068401E0860704776
:207880002001002000010020024A0023115C13540846704756030020F0B4564B7D27564D39
:2078A000FF001969554A564C7E008CB08446A94201D9069604E0914201D2069700E0069480
:2078C0005969A94201D9079604E0914201D2079700E00794196AA94201D9089704E0914243
:2078E00001D2089600E00894596AA94201D9099704E0914201D2099600E00994414C00211F
:207900006D46C80000190079002803D08A005219966202E08A0052199762491C0229F0D34F
:20792000D868009098680190186802905868364903900A68CE2042439C6932204443101916
:20794000000A086004904868CE225043DA6932235A438018000A486005902C482C4B0021CE
:20796000425C002A03D08A00AC581C1BAC50491C0429F5D3274C0021605C002809D0880078
:2079800042199369B34201D1976102E0BB4200D19661491C0429EFD31F4C0021605C002866
:2079A00009D088004219936AB34201D1976202E0BB4200D19662491C0229EFD3184E0021CD
:2079C000164C770D88004319605C1A69002801D090193A1A491C1A610229F3D36D461ECD39
:2079E00060461EC01ECD1EC01ECD1EC00CB0F0BC7047000014060020EC0A00001405000009
:207A0000DC0500002023002058030020507C0108FF0F0000547C01084C7C01084E7C010847
:207A200001F8FFFF70B40925ED06288A224C460522480122006800232149002E03DB0860A9
:207A40000A71227004E00E68861B322E00D90B712D8AAD0503D488600A73627004E08C681A
:207A6000001B322800D90B7348790028087902D0002804D009E0002807D04A7105E04B71BE
:207A8000887900280FD000208871487B0028087B0BD0002805D14B73887B00280AD000209B
